{
  "contractName": "Faucet",
  "abi": [
    {
      "constant": true,
      "inputs": [],
      "name": "VALToken",
      "outputs": [
        {
          "name": "",
          "type": "address"
        }
      ],
      "payable": false,
      "stateMutability": "view",
      "type": "function"
    },
    {
      "constant": true,
      "inputs": [],
      "name": "VALOwner",
      "outputs": [
        {
          "name": "",
          "type": "address"
        }
      ],
      "payable": false,
      "stateMutability": "view",
      "type": "function"
    },
    {
      "inputs": [
        {
          "name": "_VALToken",
          "type": "address"
        },
        {
          "name": "_VALOwner",
          "type": "address"
        }
      ],
      "payable": false,
      "stateMutability": "nonpayable",
      "type": "constructor"
    },
    {
      "payable": true,
      "stateMutability": "payable",
      "type": "fallback"
    },
    {
      "constant": false,
      "inputs": [
        {
          "name": "withdraw_amount",
          "type": "uint256"
        }
      ],
      "name": "withdraw",
      "outputs": [],
      "payable": false,
      "stateMutability": "nonpayable",
      "type": "function"
    }
  ],
  "bytecode": "0x608060405234801561001057600080fd5b506040516040806103e78339810180604052810190808051906020019092919080519060200190929190505050816000806101000a81548173ffffffffffffffffffffffffffffffffffffffff021916908373ffffffffffffffffffffffffffffffffffffffff16021790555080600160006101000a81548173ffffffffffffffffffffffffffffffffffffffff021916908373ffffffffffffffffffffffffffffffffffffffff1602179055505050610318806100cf6000396000f300608060405260043610610057576000357c0100000000000000000000000000000000000000000000000000000000900463ffffffff1680632e1a7d4d1461005c57806371a61a8e146100895780639e039816146100e0575b600080fd5b34801561006857600080fd5b5061008760048036038101908080359060200190929190505050610137565b005b34801561009557600080fd5b5061009e6102a1565b604051808273ffffffffffffffffffffffffffffffffffffffff1673ffffffffffffffffffffffffffffffffffffffff16815260200191505060405180910390f35b3480156100ec57600080fd5b506100f56102c6565b604051808273ffffffffffffffffffffffffffffffffffffffff1673ffffffffffffffffffffffffffffffffffffffff16815260200191505060405180910390f35b6103e8811115151561014857600080fd5b6000809054906101000a900473ffffffffffffffffffffffffffffffffffffffff1673ffffffffffffffffffffffffffffffffffffffff166323b872dd600160009054906101000a900473ffffffffffffffffffffffffffffffffffffffff1633846040518463ffffffff167c0100000000000000000000000000000000000000000000000000000000028152600401808473ffffffffffffffffffffffffffffffffffffffff1673ffffffffffffffffffffffffffffffffffffffff1681526020018373ffffffffffffffffffffffffffffffffffffffff1673ffffffffffffffffffffffffffffffffffffffff1681526020018281526020019350505050602060405180830381600087803b15801561026257600080fd5b505af1158015610276573d6000803e3d6000fd5b505050506040513d602081101561028c57600080fd5b81019080805190602001909291905050505050565b6000809054906101000a900473ffffffffffffffffffffffffffffffffffffffff1681565b600160009054906101000a900473ffffffffffffffffffffffffffffffffffffffff16815600a165627a7a72305820e3c7355870f6e0ab756974324778d9ac634844e8eb732ddbe2d1047b977c1cfc0029",
  "source": "pragma solidity ^0.4.25;\n\n// Faucet for VALToken\n\nimport 'openzeppelin-solidity/contracts/token/ERC20/StandardToken.sol';\n\ncontract Faucet {\n\n    StandardToken public VALToken;\n    address public VALOwner;\n\n    //_VALToken is the address of the VALToken contract\n    //_VALOwner is the address with transfer permission\n    constructor (address _VALToken, address _VALOwner) public {\n        VALToken = StandardToken(_VALToken);\n        VALOwner = _VALOwner;\n    }\n\n\t// Give out ether to anyone who asks\n\tfunction withdraw(uint withdraw_amount) public {\n\n    \t// Limit withdrawal amount to 10 VAL\n    \trequire(withdraw_amount <= 1000);\n\n        VALToken.transferFrom(VALOwner, msg.sender, withdraw_amount);\n    \t\n    }\n\n\t// Reject any incoming ether\n\tfunction () public payable {\n        revert();\n    }\n\n}",
  "sourcePath": "/home/valentin/crypto/VALToken/VALToken/contracts/Faucet.sol",
  "compiler": {
    "name": "solc",
    "version": "0.4.25+commit.59dbf8f1.Emscripten.clang"
  },
  "schemaVersion": "2.0.2",
  "updatedAt": "2019-02-16T04:18:21.302Z"
}